{
  "contractName": "Rechnung",
  "abi": [
    {
      "inputs": [
        {
          "internalType": "string",
          "name": "_gesamtbetrag",
          "type": "string"
        },
        {
          "internalType": "address",
          "name": "_importeur",
          "type": "address"
        },
        {
          "internalType": "address",
          "name": "_zoll",
          "type": "address"
        },
        {
          "internalType": "string",
          "name": "_waehrung",
          "type": "string"
        },
        {
          "internalType": "string",
          "name": "_datum",
          "type": "string"
        },
        {
          "internalType": "string",
          "name": "_rechnungsposten",
          "type": "string"
        }
      ],
      "stateMutability": "payable",
      "type": "constructor"
    },
    {
      "inputs": [],
      "name": "getImporteur",
      "outputs": [
        {
          "internalType": "address",
          "name": "",
          "type": "address"
        }
      ],
      "stateMutability": "nonpayable",
      "type": "function"
    },
    {
      "inputs": [
        {
          "internalType": "address",
          "name": "_address",
          "type": "address"
        }
      ],
      "name": "getGesamtbetrag",
      "outputs": [
        {
          "internalType": "string",
          "name": "",
          "type": "string"
        }
      ],
      "stateMutability": "nonpayable",
      "type": "function"
    },
    {
      "inputs": [],
      "name": "confirmRechnung",
      "outputs": [],
      "stateMutability": "nonpayable",
      "type": "function"
    },
    {
      "inputs": [],
      "name": "getRechnung",
      "outputs": [
        {
          "internalType": "string",
          "name": "",
          "type": "string"
        },
        {
          "internalType": "address",
          "name": "",
          "type": "address"
        },
        {
          "internalType": "address",
          "name": "",
          "type": "address"
        },
        {
          "internalType": "string",
          "name": "",
          "type": "string"
        },
        {
          "internalType": "string",
          "name": "",
          "type": "string"
        },
        {
          "internalType": "string",
          "name": "",
          "type": "string"
        },
        {
          "internalType": "bool",
          "name": "",
          "type": "bool"
        }
      ],
      "stateMutability": "nonpayable",
      "type": "function"
    }
  ],
  "bytecode": "0x608060405260405162000f2f38038062000f2f833981810160405281019062000029919062000429565b85600090805190602001906200004192919062000177565b5033600260006101000a81548173ffffffffffffffffffffffffffffffffffffffff021916908373ffffffffffffffffffffffffffffffffffffffff16021790555084600360006101000a81548173ffffffffffffffffffffffffffffffffffffffff021916908373ffffffffffffffffffffffffffffffffffffffff16021790555083600460006101000a81548173ffffffffffffffffffffffffffffffffffffffff021916908373ffffffffffffffffffffffffffffffffffffffff16021790555082600190805190602001906200011d92919062000177565b5081600590805190602001906200013692919062000177565b5080600690805190602001906200014f92919062000177565b506000600760006101000a81548160ff021916908315150217905550505050505050620005a6565b828054620001859062000570565b90600052602060002090601f016020900481019282620001a95760008555620001f5565b82601f10620001c457805160ff1916838001178555620001f5565b82800160010185558215620001f5579182015b82811115620001f4578251825591602001919060010190620001d7565b5b50905062000204919062000208565b5090565b5b808211156200022357600081600090555060010162000209565b5090565b6000604051905090565b600080fd5b600080fd5b600080fd5b600080fd5b6000601f19601f8301169050919050565b7f4e487b7100000000000000000000000000000000000000000000000000000000600052604160045260246000fd5b620002908262000245565b810181811067ffffffffffffffff82111715620002b257620002b162000256565b5b80604052505050565b6000620002c762000227565b9050620002d5828262000285565b919050565b600067ffffffffffffffff821115620002f857620002f762000256565b5b620003038262000245565b9050602081019050919050565b60005b838110156200033057808201518184015260208101905062000313565b8381111562000340576000848401525b50505050565b60006200035d6200035784620002da565b620002bb565b9050828152602081018484840111156200037c576200037b62000240565b5b6200038984828562000310565b509392505050565b600082601f830112620003a957620003a86200023b565b5b8151620003bb84826020860162000346565b91505092915050565b600073ffffffffffffffffffffffffffffffffffffffff82169050919050565b6000620003f182620003c4565b9050919050565b6200040381620003e4565b81146200040f57600080fd5b50565b6000815190506200042381620003f8565b92915050565b60008060008060008060c0878903121562000449576200044862000231565b5b600087015167ffffffffffffffff8111156200046a576200046962000236565b5b6200047889828a0162000391565b96505060206200048b89828a0162000412565b95505060406200049e89828a0162000412565b945050606087015167ffffffffffffffff811115620004c257620004c162000236565b5b620004d089828a0162000391565b935050608087015167ffffffffffffffff811115620004f457620004f362000236565b5b6200050289828a0162000391565b92505060a087015167ffffffffffffffff81111562000526576200052562000236565b5b6200053489828a0162000391565b9150509295509295509295565b7f4e487b7100000000000000000000000000000000000000000000000000000000600052602260045260246000fd5b600060028204905060018216806200058957607f821691505b60208210811415620005a0576200059f62000541565b5b50919050565b61097980620005b66000396000f3fe608060405234801561001057600080fd5b506004361061004c5760003560e01c8063aaadebf214610051578063ad95d0f91461005b578063fefa2f451461007f578063ff7d4143146100af575b600080fd5b6100596100cd565b005b610063610144565b60405161007697969594939291906107bc565b60405180910390f35b61009960048036038101906100949190610878565b6104ff565b6040516100a691906108a5565b60405180910390f35b6100b761069d565b6040516100c491906108c7565b60405180910390f35b3373ffffffffffffffffffffffffffffffffffffffff16600360009054906101000a900473ffffffffffffffffffffffffffffffffffffffff1673ffffffffffffffffffffffffffffffffffffffff161461012757600080fd5b6001600760006101000a81548160ff021916908315150217905550565b6060600080606080606060003373ffffffffffffffffffffffffffffffffffffffff16600360009054906101000a900473ffffffffffffffffffffffffffffffffffffffff1673ffffffffffffffffffffffffffffffffffffffff1614806101f957503373ffffffffffffffffffffffffffffffffffffffff16600260009054906101000a900473ffffffffffffffffffffffffffffffffffffffff1673ffffffffffffffffffffffffffffffffffffffff16145b8061025157503373ffffffffffffffffffffffffffffffffffffffff16600460009054906101000a900473ffffffffffffffffffffffffffffffffffffffff1673ffffffffffffffffffffffffffffffffffffffff16145b61025a57600080fd5b6000600360009054906101000a900473ffffffffffffffffffffffffffffffffffffffff16600460009054906101000a900473ffffffffffffffffffffffffffffffffffffffff16600160056006600760009054906101000a900460ff168680546102c490610911565b80601f01602080910402602001604051908101604052809291908181526020018280546102f090610911565b801561033d5780601f106103125761010080835404028352916020019161033d565b820191906000526020600020905b81548152906001019060200180831161032057829003601f168201915b5050505050965083805461035090610911565b80601f016020809104026020016040519081016040528092919081815260200182805461037c90610911565b80156103c95780601f1061039e576101008083540402835291602001916103c9565b820191906000526020600020905b8154815290600101906020018083116103ac57829003601f168201915b505050505093508280546103dc90610911565b80601f016020809104026020016040519081016040528092919081815260200182805461040890610911565b80156104555780601f1061042a57610100808354040283529160200191610455565b820191906000526020600020905b81548152906001019060200180831161043857829003601f168201915b5050505050925081805461046890610911565b80601f016020809104026020016040519081016040528092919081815260200182805461049490610911565b80156104e15780601f106104b6576101008083540402835291602001916104e1565b820191906000526020600020905b8154815290600101906020018083116104c457829003601f168201915b50505050509150965096509650965096509650965090919293949596565b60608173ffffffffffffffffffffffffffffffffffffffff16600360009054906101000a900473ffffffffffffffffffffffffffffffffffffffff1673ffffffffffffffffffffffffffffffffffffffff1614806105aa57508173ffffffffffffffffffffffffffffffffffffffff16600260009054906101000a900473ffffffffffffffffffffffffffffffffffffffff1673ffffffffffffffffffffffffffffffffffffffff16145b806106025750600460009054906101000a900473ffffffffffffffffffffffffffffffffffffffff1673ffffffffffffffffffffffffffffffffffffffff168273ffffffffffffffffffffffffffffffffffffffff16145b61060b57600080fd5b6000805461061890610911565b80601f016020809104026020016040519081016040528092919081815260200182805461064490610911565b80156106915780601f1061066657610100808354040283529160200191610691565b820191906000526020600020905b81548152906001019060200180831161067457829003601f168201915b50505050509050919050565b6000600360009054906101000a900473ffffffffffffffffffffffffffffffffffffffff16905090565b600081519050919050565b600082825260208201905092915050565b60005b838110156107015780820151818401526020810190506106e6565b83811115610710576000848401525b50505050565b6000601f19601f8301169050919050565b6000610732826106c7565b61073c81856106d2565b935061074c8185602086016106e3565b61075581610716565b840191505092915050565b600073ffffffffffffffffffffffffffffffffffffffff82169050919050565b600061078b82610760565b9050919050565b61079b81610780565b82525050565b60008115159050919050565b6107b6816107a1565b82525050565b600060e08201905081810360008301526107d6818a610727565b90506107e56020830189610792565b6107f26040830188610792565b81810360608301526108048187610727565b905081810360808301526108188186610727565b905081810360a083015261082c8185610727565b905061083b60c08301846107ad565b98975050505050505050565b600080fd5b61085581610780565b811461086057600080fd5b50565b6000813590506108728161084c565b92915050565b60006020828403121561088e5761088d610847565b5b600061089c84828501610863565b91505092915050565b600060208201905081810360008301526108bf8184610727565b905092915050565b60006020820190506108dc6000830184610792565b92915050565b7f4e487b7100000000000000000000000000000000000000000000000000000000600052602260045260246000fd5b6000600282049050600182168061092957607f821691505b6020821081141561093d5761093c6108e2565b5b5091905056fea2646970667358221220c0384ed694ae63bd10dc423f53e0adc65466cdf0b73d30037950d892dad0074664736f6c63430008090033",
  "immutableReferences": {},
  "source": "// SPDX-License-Identifier: GPL-3.0\r\npragma solidity ^0.8.9;\r\n\r\ncontract Rechnung {\r\n    string gesamtbetrag;\r\n    string waehrung;\r\n    address exporteur;\r\n    address importeur;\r\n    address zoll;\r\n    string datum;\r\n    string rechnungsposten;\r\n    bool bestaetigt;\r\n    constructor(string memory _gesamtbetrag, address _importeur,  address _zoll, string memory _waehrung, string memory _datum, string memory _rechnungsposten) public payable {\r\n        gesamtbetrag= _gesamtbetrag;\r\n        exporteur= msg.sender;\r\n        importeur= _importeur;\r\n        zoll= _zoll;\r\n        waehrung= _waehrung;\r\n        datum= _datum;\r\n        rechnungsposten= _rechnungsposten;\r\n        bestaetigt= false;\r\n        }\r\n\r\n    function getImporteur() public returns(address){\r\n        return importeur;\r\n    }\r\n\r\n    function getGesamtbetrag(address _address) public returns(string memory){\r\n        require(importeur == _address || exporteur == _address || _address == zoll);\r\n        return gesamtbetrag;\r\n    }\r\n\r\n    //Erstellte Rechnung ist erst dann gltig, wenn der Importeur diese besttigt \r\n    function confirmRechnung() public {\r\n        require(\r\n            importeur == msg.sender\r\n            //\"Nur 'Importeur' kann Rechnung besttigen\"\r\n        );\r\n        bestaetigt=true;\r\n    }\r\n\r\n    function getRechnung() public returns (string memory, address,  address, string memory, string memory, string memory, bool){\r\n        require(importeur == msg.sender || exporteur == msg.sender || zoll == msg.sender);\r\n        return(gesamtbetrag, importeur, zoll,  waehrung, datum, rechnungsposten, bestaetigt); \r\n    }\r\n}\r\n\r\ncontract Zollanmeldung {\r\n    address exporteur;\r\n    address importeur;\r\n    address anmelder;\r\n    address zoll;\r\n    uint zeitstempel;\r\n    string zollwert;\r\n    string transportkosten;\r\n    bool bestaetigt;\r\n    string incoterms;\r\n    string gesamtbetrag;\r\n    constructor(address _exporteur, address _zoll, address _rechnungaddress, string memory _zollwert, string memory _transportkosten, string memory _incoterms) public payable {\r\n        Rechnung r = Rechnung(_rechnungaddress);\r\n        require(r.getImporteur() == msg.sender);\r\n        exporteur = _exporteur;\r\n        importeur = msg.sender;\r\n        anmelder= msg.sender;\r\n        zoll = _zoll;\r\n        zeitstempel = block.timestamp;\r\n        zollwert = _zollwert;\r\n        transportkosten = _transportkosten;\r\n        bestaetigt = false;\r\n        incoterms =_incoterms;\r\n        //betrag wird aus Rechnung gezogen\r\n        gesamtbetrag = r.getGesamtbetrag(msg.sender);\r\n    }\r\n\r\n    //Erstellte Zollanmeldung ist erst dann gltig, wenn der Zoll diese besttigt\r\n    function confirmZollanmeldung() public {\r\n        require(\r\n            zoll == msg.sender\r\n            //\"Nur Zoll kann Zollanmeldung besttigen\"\r\n        );\r\n        bestaetigt=true;\r\n    }\r\n\r\n    function getZollanmeldung() public returns (address, address, address, address, uint, string memory, string memory, bool, string memory, string memory){\r\n        require(importeur == msg.sender || zoll == msg.sender);\r\n        return(exporteur, importeur,anmelder, zoll,zeitstempel, zollwert, transportkosten, bestaetigt, incoterms, gesamtbetrag); \r\n    }\r\n}\r\n\r\ncontract DokumentenHash{\r\n    uint transaktionsID;\r\n    string titel;\r\n    string hash;\r\n    address owner;\r\n    address zoll;\r\n    constructor(uint _transaktionsID, string memory _titel, string memory _hash, address _zoll) public payable {\r\n        transaktionsID=_transaktionsID;\r\n        titel = _titel;\r\n        hash = _hash;\r\n        owner = msg.sender;\r\n        zoll = _zoll;\r\n    }\r\n}\r\n",
  "sourcePath": "C:\\Users\\lenna\\Desktop\\projektstudium\\projektstudium\\truffle\\contracts\\Zollsystem.sol",
  "compiler": {
    "name": "solc",
    "version": "0.8.9+commit.e5eed63a.Emscripten.clang"
  },
  "schemaVersion": "3.4.4",
  "updatedAt": "2022-06-17T10:30:17.981Z",
  "devdoc": {
    "kind": "dev",
    "methods": {},
    "version": 1
  },
  "userdoc": {
    "kind": "user",
    "methods": {},
    "version": 1
  }
}