{
  "contractName": "Zollanmeldung",
  "abi": [
    {
      "inputs": [
        {
          "internalType": "address",
          "name": "_exporteur",
          "type": "address"
        },
        {
          "internalType": "address",
          "name": "_zoll",
          "type": "address"
        },
        {
          "internalType": "address",
          "name": "_rechnungaddress",
          "type": "address"
        },
        {
          "internalType": "string",
          "name": "_zollwert",
          "type": "string"
        },
        {
          "internalType": "string",
          "name": "_transportkosten",
          "type": "string"
        },
        {
          "internalType": "string",
          "name": "_incoterms",
          "type": "string"
        }
      ],
      "stateMutability": "payable",
      "type": "constructor"
    },
    {
      "inputs": [],
      "name": "confirmZollanmeldung",
      "outputs": [],
      "stateMutability": "nonpayable",
      "type": "function"
    },
    {
      "inputs": [],
      "name": "getZollanmeldung",
      "outputs": [
        {
          "internalType": "address",
          "name": "",
          "type": "address"
        },
        {
          "internalType": "address",
          "name": "",
          "type": "address"
        },
        {
          "internalType": "address",
          "name": "",
          "type": "address"
        },
        {
          "internalType": "address",
          "name": "",
          "type": "address"
        },
        {
          "internalType": "uint256",
          "name": "",
          "type": "uint256"
        },
        {
          "internalType": "string",
          "name": "",
          "type": "string"
        },
        {
          "internalType": "string",
          "name": "",
          "type": "string"
        },
        {
          "internalType": "bool",
          "name": "",
          "type": "bool"
        },
        {
          "internalType": "string",
          "name": "",
          "type": "string"
        },
        {
          "internalType": "string",
          "name": "",
          "type": "string"
        }
      ],
      "stateMutability": "nonpayable",
      "type": "function"
    }
  ],
  "bytecode": "0x608060405260405162000edd38038062000edd8339818101604052810190620000299190620005c7565b60008490503373ffffffffffffffffffffffffffffffffffffffff168173ffffffffffffffffffffffffffffffffffffffff1663ff7d41436040518163ffffffff1660e01b8152600401602060405180830381600087803b1580156200008e57600080fd5b505af1158015620000a3573d6000803e3d6000fd5b505050506040513d601f19601f82011682018060405250810190620000c99190620006c0565b73ffffffffffffffffffffffffffffffffffffffff1614620000ea57600080fd5b866000806101000a81548173ffffffffffffffffffffffffffffffffffffffff021916908373ffffffffffffffffffffffffffffffffffffffff16021790555033600160006101000a81548173ffffffffffffffffffffffffffffffffffffffff021916908373ffffffffffffffffffffffffffffffffffffffff16021790555033600260006101000a81548173ffffffffffffffffffffffffffffffffffffffff021916908373ffffffffffffffffffffffffffffffffffffffff16021790555085600360006101000a81548173ffffffffffffffffffffffffffffffffffffffff021916908373ffffffffffffffffffffffffffffffffffffffff1602179055504260048190555083600590805190602001906200020c92919062000315565b5082600690805190602001906200022592919062000315565b506000600760006101000a81548160ff02191690831515021790555081600890805190602001906200025992919062000315565b508073ffffffffffffffffffffffffffffffffffffffff1663fefa2f45336040518263ffffffff1660e01b815260040162000295919062000703565b600060405180830381600087803b158015620002b057600080fd5b505af1158015620002c5573d6000803e3d6000fd5b505050506040513d6000823e3d601f19601f82011682018060405250810190620002f0919062000720565b600990805190602001906200030792919062000315565b5050505050505050620007d6565b8280546200032390620007a0565b90600052602060002090601f01602090048101928262000347576000855562000393565b82601f106200036257805160ff191683800117855562000393565b8280016001018555821562000393579182015b828111156200039257825182559160200191906001019062000375565b5b509050620003a29190620003a6565b5090565b5b80821115620003c1576000816000905550600101620003a7565b5090565b6000604051905090565b600080fd5b600080fd5b600073ffffffffffffffffffffffffffffffffffffffff82169050919050565b60006200040682620003d9565b9050919050565b6200041881620003f9565b81146200042457600080fd5b50565b60008151905062000438816200040d565b92915050565b600080fd5b600080fd5b6000601f19601f8301169050919050565b7f4e487b7100000000000000000000000000000000000000000000000000000000600052604160045260246000fd5b620004938262000448565b810181811067ffffffffffffffff82111715620004b557620004b462000459565b5b80604052505050565b6000620004ca620003c5565b9050620004d8828262000488565b919050565b600067ffffffffffffffff821115620004fb57620004fa62000459565b5b620005068262000448565b9050602081019050919050565b60005b838110156200053357808201518184015260208101905062000516565b8381111562000543576000848401525b50505050565b6000620005606200055a84620004dd565b620004be565b9050828152602081018484840111156200057f576200057e62000443565b5b6200058c84828562000513565b509392505050565b600082601f830112620005ac57620005ab6200043e565b5b8151620005be84826020860162000549565b91505092915050565b60008060008060008060c08789031215620005e757620005e6620003cf565b5b6000620005f789828a0162000427565b96505060206200060a89828a0162000427565b95505060406200061d89828a0162000427565b945050606087015167ffffffffffffffff811115620006415762000640620003d4565b5b6200064f89828a0162000594565b935050608087015167ffffffffffffffff811115620006735762000672620003d4565b5b6200068189828a0162000594565b92505060a087015167ffffffffffffffff811115620006a557620006a4620003d4565b5b620006b389828a0162000594565b9150509295509295509295565b600060208284031215620006d957620006d8620003cf565b5b6000620006e98482850162000427565b91505092915050565b620006fd81620003f9565b82525050565b60006020820190506200071a6000830184620006f2565b92915050565b600060208284031215620007395762000738620003cf565b5b600082015167ffffffffffffffff8111156200075a5762000759620003d4565b5b620007688482850162000594565b91505092915050565b7f4e487b7100000000000000000000000000000000000000000000000000000000600052602260045260246000fd5b60006002820490506001821680620007b957607f821691505b60208210811415620007d057620007cf62000771565b5b50919050565b6106f780620007e66000396000f3fe608060405234801561001057600080fd5b50600436106100365760003560e01c8063860054681461003b578063cd3d9d0414610045575b600080fd5b61004361006c565b005b61004d6100e3565b6040516100639a999897969594939291906105a8565b60405180910390f35b3373ffffffffffffffffffffffffffffffffffffffff16600360009054906101000a900473ffffffffffffffffffffffffffffffffffffffff1673ffffffffffffffffffffffffffffffffffffffff16146100c657600080fd5b6001600760006101000a81548160ff021916908315150217905550565b600080600080600060608060006060803373ffffffffffffffffffffffffffffffffffffffff16600160009054906101000a900473ffffffffffffffffffffffffffffffffffffffff1673ffffffffffffffffffffffffffffffffffffffff16148061019c57503373ffffffffffffffffffffffffffffffffffffffff16600360009054906101000a900473ffffffffffffffffffffffffffffffffffffffff1673ffffffffffffffffffffffffffffffffffffffff16145b6101a557600080fd5b60008054906101000a900473ffffffffffffffffffffffffffffffffffffffff16600160009054906101000a900473ffffffffffffffffffffffffffffffffffffffff16600260009054906101000a900473ffffffffffffffffffffffffffffffffffffffff16600360009054906101000a900473ffffffffffffffffffffffffffffffffffffffff1660045460056006600760009054906101000a900460ff16600860098480546102569061068f565b80601f01602080910402602001604051908101604052809291908181526020018280546102829061068f565b80156102cf5780601f106102a4576101008083540402835291602001916102cf565b820191906000526020600020905b8154815290600101906020018083116102b257829003601f168201915b505050505094508380546102e29061068f565b80601f016020809104026020016040519081016040528092919081815260200182805461030e9061068f565b801561035b5780601f106103305761010080835404028352916020019161035b565b820191906000526020600020905b81548152906001019060200180831161033e57829003601f168201915b5050505050935081805461036e9061068f565b80601f016020809104026020016040519081016040528092919081815260200182805461039a9061068f565b80156103e75780601f106103bc576101008083540402835291602001916103e7565b820191906000526020600020905b8154815290600101906020018083116103ca57829003601f168201915b505050505091508080546103fa9061068f565b80601f01602080910402602001604051908101604052809291908181526020018280546104269061068f565b80156104735780601f1061044857610100808354040283529160200191610473565b820191906000526020600020905b81548152906001019060200180831161045657829003601f168201915b50505050509050995099509950995099509950995099509950995090919293949596979899565b600073ffffffffffffffffffffffffffffffffffffffff82169050919050565b60006104c58261049a565b9050919050565b6104d5816104ba565b82525050565b6000819050919050565b6104ee816104db565b82525050565b600081519050919050565b600082825260208201905092915050565b60005b8381101561052e578082015181840152602081019050610513565b8381111561053d576000848401525b50505050565b6000601f19601f8301169050919050565b600061055f826104f4565b61056981856104ff565b9350610579818560208601610510565b61058281610543565b840191505092915050565b60008115159050919050565b6105a28161058d565b82525050565b6000610140820190506105be600083018d6104cc565b6105cb602083018c6104cc565b6105d8604083018b6104cc565b6105e5606083018a6104cc565b6105f260808301896104e5565b81810360a08301526106048188610554565b905081810360c08301526106188187610554565b905061062760e0830186610599565b81810361010083015261063a8185610554565b905081810361012083015261064f8184610554565b90509b9a5050505050505050505050565b7f4e487b7100000000000000000000000000000000000000000000000000000000600052602260045260246000fd5b600060028204905060018216806106a757607f821691505b602082108114156106bb576106ba610660565b5b5091905056fea2646970667358221220347a97a15fd39600fdea0b3d979e16d2f7f859d74cefe8cbfbd1f8c60bfb9e9a64736f6c63430008090033",
  "immutableReferences": {},
  "source": "// SPDX-License-Identifier: GPL-3.0\r\npragma solidity ^0.8.9;\r\n\r\ncontract Rechnung {\r\n    string gesamtbetrag;\r\n    string waehrung;\r\n    address exporteur;\r\n    address importeur;\r\n    address zoll;\r\n    string datum;\r\n    string rechnungsposten;\r\n    bool bestaetigt;\r\n    constructor(string memory _gesamtbetrag, address _importeur,  address _zoll, string memory _waehrung, string memory _datum, string memory _rechnungsposten) public payable {\r\n        gesamtbetrag= _gesamtbetrag;\r\n        exporteur= msg.sender;\r\n        importeur= _importeur;\r\n        zoll= _zoll;\r\n        waehrung= _waehrung;\r\n        datum= _datum;\r\n        rechnungsposten= _rechnungsposten;\r\n        bestaetigt= false;\r\n        }\r\n\r\n    function getImporteur() public returns(address){\r\n        return importeur;\r\n    }\r\n\r\n    function getGesamtbetrag(address _address) public returns(string memory){\r\n        require(importeur == _address || exporteur == _address || _address == zoll);\r\n        return gesamtbetrag;\r\n    }\r\n\r\n    //Erstellte Rechnung ist erst dann gltig, wenn der Importeur diese besttigt \r\n    function confirmRechnung() public {\r\n        require(\r\n            importeur == msg.sender\r\n            //\"Nur 'Importeur' kann Rechnung besttigen\"\r\n        );\r\n        bestaetigt=true;\r\n    }\r\n\r\n    function getRechnung() public returns (string memory, address,  address, string memory, string memory, string memory, bool){\r\n        require(importeur == msg.sender || exporteur == msg.sender || zoll == msg.sender);\r\n        return(gesamtbetrag, importeur, zoll,  waehrung, datum, rechnungsposten, bestaetigt); \r\n    }\r\n}\r\n\r\ncontract Zollanmeldung {\r\n    address exporteur;\r\n    address importeur;\r\n    address anmelder;\r\n    address zoll;\r\n    uint zeitstempel;\r\n    string zollwert;\r\n    string transportkosten;\r\n    bool bestaetigt;\r\n    string incoterms;\r\n    string gesamtbetrag;\r\n    constructor(address _exporteur, address _zoll, address _rechnungaddress, string memory _zollwert, string memory _transportkosten, string memory _incoterms) public payable {\r\n        Rechnung r = Rechnung(_rechnungaddress);\r\n        require(r.getImporteur() == msg.sender);\r\n        exporteur = _exporteur;\r\n        importeur = msg.sender;\r\n        anmelder= msg.sender;\r\n        zoll = _zoll;\r\n        zeitstempel = block.timestamp;\r\n        zollwert = _zollwert;\r\n        transportkosten = _transportkosten;\r\n        bestaetigt = false;\r\n        incoterms =_incoterms;\r\n        //betrag wird aus Rechnung gezogen\r\n        gesamtbetrag = r.getGesamtbetrag(msg.sender);\r\n    }\r\n\r\n    //Erstellte Zollanmeldung ist erst dann gltig, wenn der Zoll diese besttigt\r\n    function confirmZollanmeldung() public {\r\n        require(\r\n            zoll == msg.sender\r\n            //\"Nur Zoll kann Zollanmeldung besttigen\"\r\n        );\r\n        bestaetigt=true;\r\n    }\r\n\r\n    function getZollanmeldung() public returns (address, address, address, address, uint, string memory, string memory, bool, string memory, string memory){\r\n        require(importeur == msg.sender || zoll == msg.sender);\r\n        return(exporteur, importeur,anmelder, zoll,zeitstempel, zollwert, transportkosten, bestaetigt, incoterms, gesamtbetrag); \r\n    }\r\n}\r\n\r\ncontract DokumentenHash{\r\n    uint transaktionsID;\r\n    string titel;\r\n    string hash;\r\n    address owner;\r\n    address zoll;\r\n    constructor(uint _transaktionsID, string memory _titel, string memory _hash, address _zoll) public payable {\r\n        transaktionsID=_transaktionsID;\r\n        titel = _titel;\r\n        hash = _hash;\r\n        owner = msg.sender;\r\n        zoll = _zoll;\r\n    }\r\n}\r\n",
  "sourcePath": "C:\\Users\\lenna\\Desktop\\projektstudium\\projektstudium\\truffle\\contracts\\Zollsystem.sol",
  "compiler": {
    "name": "solc",
    "version": "0.8.9+commit.e5eed63a.Emscripten.clang"
  },
  "schemaVersion": "3.4.4",
  "updatedAt": "2022-06-17T10:30:17.991Z",
  "devdoc": {
    "kind": "dev",
    "methods": {},
    "version": 1
  },
  "userdoc": {
    "kind": "user",
    "methods": {},
    "version": 1
  }
}