{
  "contractName": "zollsystem",
  "abi": [
    {
      "inputs": [],
      "stateMutability": "nonpayable",
      "type": "constructor"
    },
    {
      "inputs": [
        {
          "internalType": "string",
          "name": "_gesamtbetrag",
          "type": "string"
        },
        {
          "internalType": "address",
          "name": "_importeur",
          "type": "address"
        },
        {
          "internalType": "string",
          "name": "_waehrung",
          "type": "string"
        },
        {
          "internalType": "string",
          "name": "_datum",
          "type": "string"
        },
        {
          "internalType": "string",
          "name": "_rechnungsposten",
          "type": "string"
        },
        {
          "internalType": "string",
          "name": "_lieferkosten",
          "type": "string"
        }
      ],
      "name": "createRechnung",
      "outputs": [
        {
          "internalType": "uint256",
          "name": "",
          "type": "uint256"
        }
      ],
      "stateMutability": "nonpayable",
      "type": "function"
    },
    {
      "inputs": [
        {
          "internalType": "uint256",
          "name": "_transaktionsID",
          "type": "uint256"
        },
        {
          "internalType": "string",
          "name": "_hashwert",
          "type": "string"
        }
      ],
      "name": "createDokument",
      "outputs": [
        {
          "internalType": "uint256",
          "name": "",
          "type": "uint256"
        }
      ],
      "stateMutability": "nonpayable",
      "type": "function"
    },
    {
      "inputs": [
        {
          "internalType": "address",
          "name": "_zoll",
          "type": "address"
        },
        {
          "internalType": "uint256",
          "name": "_rechnungID",
          "type": "uint256"
        },
        {
          "internalType": "string",
          "name": "_zollwert",
          "type": "string"
        },
        {
          "internalType": "string",
          "name": "_incoterms",
          "type": "string"
        }
      ],
      "name": "createZollanmeldung",
      "outputs": [
        {
          "internalType": "uint256",
          "name": "",
          "type": "uint256"
        }
      ],
      "stateMutability": "nonpayable",
      "type": "function"
    },
    {
      "inputs": [
        {
          "internalType": "uint256",
          "name": "_dokumentenID",
          "type": "uint256"
        }
      ],
      "name": "getDokumentenHash",
      "outputs": [
        {
          "internalType": "string",
          "name": "",
          "type": "string"
        }
      ],
      "stateMutability": "view",
      "type": "function",
      "constant": true
    },
    {
      "inputs": [
        {
          "internalType": "uint256",
          "name": "zID",
          "type": "uint256"
        }
      ],
      "name": "getZollanmeldung",
      "outputs": [
        {
          "components": [
            {
              "internalType": "address",
              "name": "exporteur",
              "type": "address"
            },
            {
              "internalType": "address",
              "name": "importeur",
              "type": "address"
            },
            {
              "internalType": "address",
              "name": "anmelder",
              "type": "address"
            },
            {
              "internalType": "address",
              "name": "zoll",
              "type": "address"
            },
            {
              "internalType": "uint256",
              "name": "zeitstempel",
              "type": "uint256"
            },
            {
              "internalType": "string",
              "name": "zollwert",
              "type": "string"
            },
            {
              "internalType": "string",
              "name": "lieferkosten",
              "type": "string"
            },
            {
              "internalType": "string",
              "name": "incoterms",
              "type": "string"
            },
            {
              "internalType": "string",
              "name": "gesamtbetrag",
              "type": "string"
            },
            {
              "internalType": "uint256",
              "name": "rechnungID",
              "type": "uint256"
            }
          ],
          "internalType": "struct zollsystem.Zollanmeldung",
          "name": "",
          "type": "tuple"
        },
        {
          "components": [
            {
              "internalType": "string",
              "name": "gesamtbetrag",
              "type": "string"
            },
            {
              "internalType": "string",
              "name": "waehrung",
              "type": "string"
            },
            {
              "internalType": "address",
              "name": "exporteur",
              "type": "address"
            },
            {
              "internalType": "address",
              "name": "importeur",
              "type": "address"
            },
            {
              "internalType": "string",
              "name": "datum",
              "type": "string"
            },
            {
              "internalType": "string",
              "name": "rechnungsposten",
              "type": "string"
            },
            {
              "internalType": "string",
              "name": "lieferkosten",
              "type": "string"
            }
          ],
          "internalType": "struct zollsystem.Rechnung",
          "name": "",
          "type": "tuple"
        }
      ],
      "stateMutability": "view",
      "type": "function",
      "constant": true
    }
  ],
  "bytecode": "0x608060405234801561001057600080fd5b50611b7c806100206000396000f3fe608060405234801561001057600080fd5b50600436106100575760003560e01c80632758cb3d1461005c5780639af94c6c1461008c578063b56250fb146100bc578063ea7c34a2146100ec578063fe62d2c41461011c575b600080fd5b610076600480360381019061007191906114c2565b61014d565b60405161008391906115f4565b60405180910390f35b6100a660048036038101906100a1919061163b565b610317565b6040516100b391906115f4565b60405180910390f35b6100d660048036038101906100d19190611697565b61039c565b6040516100e391906115f4565b60405180910390f35b61010660048036038101906101019190611736565b610846565b60405161011391906117eb565b60405180910390f35b61013660048036038101906101319190611736565b6108fd565b604051610144929190611a1c565b60405180910390f35b6000806040518060e001604052808981526020018781526020013373ffffffffffffffffffffffffffffffffffffffff1681526020018873ffffffffffffffffffffffffffffffffffffffff16815260200186815260200185815260200184815250908060018154018082558091505060019003906000526020600020906007020160009091909190915060008201518160000190805190602001906101f4929190611153565b506020820151816001019080519060200190610211929190611153565b5060408201518160020160006101000a81548173ffffffffffffffffffffffffffffffffffffffff021916908373ffffffffffffffffffffffffffffffffffffffff16021790555060608201518160030160006101000a81548173ffffffffffffffffffffffffffffffffffffffff021916908373ffffffffffffffffffffffffffffffffffffffff16021790555060808201518160040190805190602001906102bc929190611153565b5060a08201518160050190805190602001906102d9929190611153565b5060c08201518160060190805190602001906102f6929190611153565b505050600160008054905061030b9190611a82565b90509695505050505050565b60006002604051806040016040528085815260200184815250908060018154018082558091505060019003906000526020600020906002020160009091909190915060008201518160000155602082015181600101908051906020019061037f929190611153565b50505060016002805490506103949190611a82565b905092915050565b60003373ffffffffffffffffffffffffffffffffffffffff16600085815481106103c9576103c8611ab6565b5b906000526020600020906007020160030160009054906101000a900473ffffffffffffffffffffffffffffffffffffffff1673ffffffffffffffffffffffffffffffffffffffff161461041b57600080fd5b60016040518061014001604052806000878154811061043d5761043c611ab6565b5b906000526020600020906007020160020160009054906101000a900473ffffffffffffffffffffffffffffffffffffffff1673ffffffffffffffffffffffffffffffffffffffff1681526020013373ffffffffffffffffffffffffffffffffffffffff1681526020013373ffffffffffffffffffffffffffffffffffffffff1681526020018773ffffffffffffffffffffffffffffffffffffffff168152602001428152602001858152602001600087815481106104fe576104fd611ab6565b5b9060005260206000209060070201600601805461051a90611b14565b80601f016020809104026020016040519081016040528092919081815260200182805461054690611b14565b80156105935780601f1061056857610100808354040283529160200191610593565b820191906000526020600020905b81548152906001019060200180831161057657829003601f168201915b50505050508152602001848152602001600087815481106105b7576105b6611ab6565b5b906000526020600020906007020160000180546105d390611b14565b80601f01602080910402602001604051908101604052809291908181526020018280546105ff90611b14565b801561064c5780601f106106215761010080835404028352916020019161064c565b820191906000526020600020905b81548152906001019060200180831161062f57829003601f168201915b505050505081526020018681525090806001815401808255809150506001900390600052602060002090600a020160009091909190915060008201518160000160006101000a81548173ffffffffffffffffffffffffffffffffffffffff021916908373ffffffffffffffffffffffffffffffffffffffff16021790555060208201518160010160006101000a81548173ffffffffffffffffffffffffffffffffffffffff021916908373ffffffffffffffffffffffffffffffffffffffff16021790555060408201518160020160006101000a81548173ffffffffffffffffffffffffffffffffffffffff021916908373ffffffffffffffffffffffffffffffffffffffff16021790555060608201518160030160006101000a81548173ffffffffffffffffffffffffffffffffffffffff021916908373ffffffffffffffffffffffffffffffffffffffff1602179055506080820151816004015560a08201518160050190805190602001906107c5929190611153565b5060c08201518160060190805190602001906107e2929190611153565b5060e08201518160070190805190602001906107ff929190611153565b5061010082015181600801908051906020019061081d929190611153565b50610120820151816009015550506001808054905061083c9190611a82565b9050949350505050565b60606002828154811061085c5761085b611ab6565b5b9060005260206000209060020201600101805461087890611b14565b80601f01602080910402602001604051908101604052809291908181526020018280546108a490611b14565b80156108f15780601f106108c6576101008083540402835291602001916108f1565b820191906000526020600020905b8154815290600101906020018083116108d457829003601f168201915b50505050509050919050565b6109056111d9565b61090d611284565b3373ffffffffffffffffffffffffffffffffffffffff166001848154811061093857610937611ab6565b5b90600052602060002090600a020160030160009054906101000a900473ffffffffffffffffffffffffffffffffffffffff1673ffffffffffffffffffffffffffffffffffffffff161461098a57600080fd5b6001838154811061099e5761099d611ab6565b5b90600052602060002090600a02016000600185815481106109c2576109c1611ab6565b5b90600052602060002090600a020160090154815481106109e5576109e4611ab6565b5b906000526020600020906007020181604051806101400160405290816000820160009054906101000a900473ffffffffffffffffffffffffffffffffffffffff1673ffffffffffffffffffffffffffffffffffffffff1673ffffffffffffffffffffffffffffffffffffffff1681526020016001820160009054906101000a900473ffffffffffffffffffffffffffffffffffffffff1673ffffffffffffffffffffffffffffffffffffffff1673ffffffffffffffffffffffffffffffffffffffff1681526020016002820160009054906101000a900473ffffffffffffffffffffffffffffffffffffffff1673ffffffffffffffffffffffffffffffffffffffff1673ffffffffffffffffffffffffffffffffffffffff1681526020016003820160009054906101000a900473ffffffffffffffffffffffffffffffffffffffff1673ffffffffffffffffffffffffffffffffffffffff1673ffffffffffffffffffffffffffffffffffffffff16815260200160048201548152602001600582018054610b7290611b14565b80601f0160208091040260200160405190810160405280929190818152602001828054610b9e90611b14565b8015610beb5780601f10610bc057610100808354040283529160200191610beb565b820191906000526020600020905b815481529060010190602001808311610bce57829003601f168201915b50505050508152602001600682018054610c0490611b14565b80601f0160208091040260200160405190810160405280929190818152602001828054610c3090611b14565b8015610c7d5780601f10610c5257610100808354040283529160200191610c7d565b820191906000526020600020905b815481529060010190602001808311610c6057829003601f168201915b50505050508152602001600782018054610c9690611b14565b80601f0160208091040260200160405190810160405280929190818152602001828054610cc290611b14565b8015610d0f5780601f10610ce457610100808354040283529160200191610d0f565b820191906000526020600020905b815481529060010190602001808311610cf257829003601f168201915b50505050508152602001600882018054610d2890611b14565b80601f0160208091040260200160405190810160405280929190818152602001828054610d5490611b14565b8015610da15780601f10610d7657610100808354040283529160200191610da1565b820191906000526020600020905b815481529060010190602001808311610d8457829003601f168201915b505050505081526020016009820154815250509150806040518060e0016040529081600082018054610dd290611b14565b80601f0160208091040260200160405190810160405280929190818152602001828054610dfe90611b14565b8015610e4b5780601f10610e2057610100808354040283529160200191610e4b565b820191906000526020600020905b815481529060010190602001808311610e2e57829003601f168201915b50505050508152602001600182018054610e6490611b14565b80601f0160208091040260200160405190810160405280929190818152602001828054610e9090611b14565b8015610edd5780601f10610eb257610100808354040283529160200191610edd565b820191906000526020600020905b815481529060010190602001808311610ec057829003601f168201915b505050505081526020016002820160009054906101000a900473ffffffffffffffffffffffffffffffffffffffff1673ffffffffffffffffffffffffffffffffffffffff1673ffffffffffffffffffffffffffffffffffffffff1681526020016003820160009054906101000a900473ffffffffffffffffffffffffffffffffffffffff1673ffffffffffffffffffffffffffffffffffffffff1673ffffffffffffffffffffffffffffffffffffffff168152602001600482018054610fa290611b14565b80601f0160208091040260200160405190810160405280929190818152602001828054610fce90611b14565b801561101b5780601f10610ff05761010080835404028352916020019161101b565b820191906000526020600020905b815481529060010190602001808311610ffe57829003601f168201915b5050505050815260200160058201805461103490611b14565b80601f016020809104026020016040519081016040528092919081815260200182805461106090611b14565b80156110ad5780601f10611082576101008083540402835291602001916110ad565b820191906000526020600020905b81548152906001019060200180831161109057829003601f168201915b505050505081526020016006820180546110c690611b14565b80601f01602080910402602001604051908101604052809291908181526020018280546110f290611b14565b801561113f5780601f106111145761010080835404028352916020019161113f565b820191906000526020600020905b81548152906001019060200180831161112257829003601f168201915b505050505081525050905091509150915091565b82805461115f90611b14565b90600052602060002090601f01602090048101928261118157600085556111c8565b82601f1061119a57805160ff19168380011785556111c8565b828001600101855582156111c8579182015b828111156111c75782518255916020019190600101906111ac565b5b5090506111d591906112ed565b5090565b604051806101400160405280600073ffffffffffffffffffffffffffffffffffffffff168152602001600073ffffffffffffffffffffffffffffffffffffffff168152602001600073ffffffffffffffffffffffffffffffffffffffff168152602001600073ffffffffffffffffffffffffffffffffffffffff1681526020016000815260200160608152602001606081526020016060815260200160608152602001600081525090565b6040518060e001604052806060815260200160608152602001600073ffffffffffffffffffffffffffffffffffffffff168152602001600073ffffffffffffffffffffffffffffffffffffffff1681526020016060815260200160608152602001606081525090565b5b808211156113065760008160009055506001016112ee565b5090565b6000604051905090565b600080fd5b600080fd5b600080fd5b600080fd5b6000601f19601f8301169050919050565b7f4e487b7100000000000000000000000000000000000000000000000000000000600052604160045260246000fd5b61137182611328565b810181811067ffffffffffffffff821117156113905761138f611339565b5b80604052505050565b60006113a361130a565b90506113af8282611368565b919050565b600067ffffffffffffffff8211156113cf576113ce611339565b5b6113d882611328565b9050602081019050919050565b82818337600083830152505050565b6000611407611402846113b4565b611399565b90508281526020810184848401111561142357611422611323565b5b61142e8482856113e5565b509392505050565b600082601f83011261144b5761144a61131e565b5b813561145b8482602086016113f4565b91505092915050565b600073ffffffffffffffffffffffffffffffffffffffff82169050919050565b600061148f82611464565b9050919050565b61149f81611484565b81146114aa57600080fd5b50565b6000813590506114bc81611496565b92915050565b60008060008060008060c087890312156114df576114de611314565b5b600087013567ffffffffffffffff8111156114fd576114fc611319565b5b61150989828a01611436565b965050602061151a89828a016114ad565b955050604087013567ffffffffffffffff81111561153b5761153a611319565b5b61154789828a01611436565b945050606087013567ffffffffffffffff81111561156857611567611319565b5b61157489828a01611436565b935050608087013567ffffffffffffffff81111561159557611594611319565b5b6115a189828a01611436565b92505060a087013567ffffffffffffffff8111156115c2576115c1611319565b5b6115ce89828a01611436565b9150509295509295509295565b6000819050919050565b6115ee816115db565b82525050565b600060208201905061160960008301846115e5565b92915050565b611618816115db565b811461162357600080fd5b50565b6000813590506116358161160f565b92915050565b6000806040838503121561165257611651611314565b5b600061166085828601611626565b925050602083013567ffffffffffffffff81111561168157611680611319565b5b61168d85828601611436565b9150509250929050565b600080600080608085870312156116b1576116b0611314565b5b60006116bf878288016114ad565b94505060206116d087828801611626565b935050604085013567ffffffffffffffff8111156116f1576116f0611319565b5b6116fd87828801611436565b925050606085013567ffffffffffffffff81111561171e5761171d611319565b5b61172a87828801611436565b91505092959194509250565b60006020828403121561174c5761174b611314565b5b600061175a84828501611626565b91505092915050565b600081519050919050565b600082825260208201905092915050565b60005b8381101561179d578082015181840152602081019050611782565b838111156117ac576000848401525b50505050565b60006117bd82611763565b6117c7818561176e565b93506117d781856020860161177f565b6117e081611328565b840191505092915050565b6000602082019050818103600083015261180581846117b2565b905092915050565b61181681611484565b82525050565b611825816115db565b82525050565b600082825260208201905092915050565b600061184782611763565b611851818561182b565b935061186181856020860161177f565b61186a81611328565b840191505092915050565b60006101408301600083015161188e600086018261180d565b5060208301516118a1602086018261180d565b5060408301516118b4604086018261180d565b5060608301516118c7606086018261180d565b5060808301516118da608086018261181c565b5060a083015184820360a08601526118f2828261183c565b91505060c083015184820360c086015261190c828261183c565b91505060e083015184820360e0860152611926828261183c565b915050610100830151848203610100860152611942828261183c565b91505061012083015161195961012086018261181c565b508091505092915050565b600060e0830160008301518482036000860152611981828261183c565b9150506020830151848203602086015261199b828261183c565b91505060408301516119b0604086018261180d565b5060608301516119c3606086018261180d565b50608083015184820360808601526119db828261183c565b91505060a083015184820360a08601526119f5828261183c565b91505060c083015184820360c0860152611a0f828261183c565b9150508091505092915050565b60006040820190508181036000830152611a368185611875565b90508181036020830152611a4a8184611964565b90509392505050565b7f4e487b7100000000000000000000000000000000000000000000000000000000600052601160045260246000fd5b6000611a8d826115db565b9150611a98836115db565b925082821015611aab57611aaa611a53565b5b828203905092915050565b7f4e487b7100000000000000000000000000000000000000000000000000000000600052603260045260246000fd5b7f4e487b7100000000000000000000000000000000000000000000000000000000600052602260045260246000fd5b60006002820490506001821680611b2c57607f821691505b60208210811415611b4057611b3f611ae5565b5b5091905056fea2646970667358221220ebb27e1e38dab57038b2f17bd16433a7f2ac7b0cec58cadada02d3cf035569fc64736f6c63430008090033",
  "immutableReferences": {},
  "source": "// SPDX-License-Identifier: GPL-3.0\r\npragma solidity ^0.8.9;\r\n\r\ncontract zollsystem {\r\n\r\n    struct Zollanmeldung {\r\n        address exporteur;\r\n        address importeur;\r\n        address anmelder;\r\n        address zoll;\r\n        uint zeitstempel;\r\n        string zollwert;\r\n        string lieferkosten;\r\n        string incoterms;\r\n        string gesamtbetrag;\r\n        uint rechnungID;\r\n    }   \r\n    \r\n    struct Rechnung {\r\n        string gesamtbetrag;\r\n        string waehrung;\r\n        address exporteur;\r\n        address importeur;\r\n        string datum;\r\n        string rechnungsposten;\r\n        string lieferkosten;\r\n    }\r\n\r\n    struct Dokument {\r\n        uint transaktionsID;\r\n        string hashwert;\r\n    }\r\n\r\n    //Dynamisches Array mit allen Rechnungen\r\n    Rechnung[] private rechnungen;\r\n    Zollanmeldung[] private zollanmeldungen;\r\n    Dokument[] private dokumente;\r\n\r\n\r\n    //Initatilisierungsfunktion\r\n    constructor(){\r\n    } \r\n\r\n    function createRechnung(string memory _gesamtbetrag, address _importeur, string memory _waehrung, string memory _datum, string memory _rechnungsposten, string memory _lieferkosten) public returns(uint){\r\n        rechnungen.push(Rechnung({\r\n            gesamtbetrag: _gesamtbetrag,\r\n            exporteur: msg.sender,\r\n            importeur: _importeur,\r\n            waehrung: _waehrung,\r\n            datum: _datum,\r\n            rechnungsposten: _rechnungsposten,\r\n            lieferkosten: _lieferkosten\r\n        }));\r\n        return rechnungen.length-1; \r\n    }\r\n\r\n    function createDokument(uint _transaktionsID, string memory _hashwert) public returns(uint){\r\n        dokumente.push(Dokument({\r\n            transaktionsID: _transaktionsID,\r\n            hashwert: _hashwert\r\n        }));\r\n        return dokumente.length-1; \r\n    }\r\n\r\n    function createZollanmeldung(address _zoll, uint _rechnungID, string memory _zollwert, string memory _incoterms) public returns(uint){\r\n        require(\r\n            rechnungen[_rechnungID].importeur == msg.sender\r\n            //Nur Importeur kann Zollanmeldung erstellen\r\n        );\r\n        zollanmeldungen.push(Zollanmeldung({\r\n            zoll: _zoll,\r\n            exporteur: rechnungen[_rechnungID].exporteur,\r\n            importeur: msg.sender,\r\n            anmelder: msg.sender,\r\n            rechnungID: _rechnungID,\r\n            zeitstempel: block.timestamp,\r\n            zollwert: _zollwert,\r\n            lieferkosten: rechnungen[_rechnungID].lieferkosten, //Rechnungsdaten werden automatisch in Zollanmeldung bernommen\r\n            gesamtbetrag: rechnungen[_rechnungID].gesamtbetrag,\r\n            incoterms: _incoterms\r\n        }));\r\n        return zollanmeldungen.length-1;\r\n    }\r\n\r\n    function getDokumentenHash(uint _dokumentenID) public view returns(string memory){\r\n        return dokumente[_dokumentenID].hashwert;\r\n    }\r\n\r\n    function getZollanmeldung(uint zID) public view returns (Zollanmeldung memory, Rechnung memory){\r\n        require(zollanmeldungen[zID].zoll == msg.sender);\r\n        return(zollanmeldungen[zID], rechnungen[zollanmeldungen[zID].rechnungID]); \r\n    }\r\n}",
  "sourcePath": "/Users/lennartgraf/projektstudium/truffle/contracts/Zollsystem.sol",
  "compiler": {
    "name": "solc",
    "version": "0.8.9+commit.e5eed63a.Emscripten.clang"
  },
  "schemaVersion": "3.4.3",
  "updatedAt": "2022-11-07T15:15:57.634Z",
  "networkType": "ethereum",
  "devdoc": {
    "kind": "dev",
    "methods": {},
    "version": 1
  },
  "userdoc": {
    "kind": "user",
    "methods": {},
    "version": 1
  }
}